{
  "_format": "hh-sol-artifact-1",
  "contractName": "FantohmProBondDepository",
  "sourceName": "contracts/bonds/FantohmProBondDepository.sol",
  "abi": [
    {
      "inputs": [
        {
          "internalType": "address",
          "name": "_FHM",
          "type": "address"
        },
        {
          "internalType": "address",
          "name": "_USDB",
          "type": "address"
        },
        {
          "internalType": "address",
          "name": "_principle",
          "type": "address"
        },
        {
          "internalType": "address",
          "name": "_treasury",
          "type": "address"
        },
        {
          "internalType": "address",
          "name": "_DAO",
          "type": "address"
        },
        {
          "internalType": "address",
          "name": "_usdbMinter",
          "type": "address"
        },
        {
          "internalType": "address",
          "name": "_poolRouter",
          "type": "address"
        },
        {
          "internalType": "address",
          "name": "_lpToken",
          "type": "address"
        },
        {
          "internalType": "address",
          "name": "_XFHM",
          "type": "address"
        },
        {
          "internalType": "address",
          "name": "_treasuryHelper",
          "type": "address"
        },
        {
          "internalType": "address",
          "name": "_vault",
          "type": "address"
        }
      ],
      "stateMutability": "nonpayable",
      "type": "constructor"
    },
    {
      "anonymous": false,
      "inputs": [
        {
          "indexed": true,
          "internalType": "address",
          "name": "depositor",
          "type": "address"
        },
        {
          "indexed": false,
          "internalType": "uint256",
          "name": "depositInPrinciple",
          "type": "uint256"
        },
        {
          "indexed": false,
          "internalType": "uint256",
          "name": "amountInLP",
          "type": "uint256"
        },
        {
          "indexed": true,
          "internalType": "uint256",
          "name": "expires",
          "type": "uint256"
        },
        {
          "indexed": true,
          "internalType": "uint256",
          "name": "priceInUSD",
          "type": "uint256"
        }
      ],
      "name": "BondCreated",
      "type": "event"
    },
    {
      "anonymous": false,
      "inputs": [
        {
          "indexed": true,
          "internalType": "address",
          "name": "recipient",
          "type": "address"
        },
        {
          "indexed": false,
          "internalType": "uint256",
          "name": "payoutInPrinciple",
          "type": "uint256"
        },
        {
          "indexed": false,
          "internalType": "uint256",
          "name": "amountInLP",
          "type": "uint256"
        },
        {
          "indexed": false,
          "internalType": "uint256",
          "name": "remainingPrinciple",
          "type": "uint256"
        }
      ],
      "name": "BondRedeemed",
      "type": "event"
    },
    {
      "anonymous": false,
      "inputs": [
        {
          "indexed": true,
          "internalType": "address",
          "name": "previousOwner",
          "type": "address"
        },
        {
          "indexed": true,
          "internalType": "address",
          "name": "newOwner",
          "type": "address"
        }
      ],
      "name": "OwnershipPulled",
      "type": "event"
    },
    {
      "anonymous": false,
      "inputs": [
        {
          "indexed": true,
          "internalType": "address",
          "name": "previousOwner",
          "type": "address"
        },
        {
          "indexed": true,
          "internalType": "address",
          "name": "newOwner",
          "type": "address"
        }
      ],
      "name": "OwnershipPushed",
      "type": "event"
    },
    {
      "inputs": [],
      "name": "DAO",
      "outputs": [
        {
          "internalType": "address",
          "name": "",
          "type": "address"
        }
      ],
      "stateMutability": "view",
      "type": "function"
    },
    {
      "inputs": [],
      "name": "FHM",
      "outputs": [
        {
          "internalType": "address",
          "name": "",
          "type": "address"
        }
      ],
      "stateMutability": "view",
      "type": "function"
    },
    {
      "inputs": [],
      "name": "USDB",
      "outputs": [
        {
          "internalType": "address",
          "name": "",
          "type": "address"
        }
      ],
      "stateMutability": "view",
      "type": "function"
    },
    {
      "inputs": [],
      "name": "XFHM",
      "outputs": [
        {
          "internalType": "address",
          "name": "",
          "type": "address"
        }
      ],
      "stateMutability": "view",
      "type": "function"
    },
    {
      "inputs": [
        {
          "internalType": "address",
          "name": "_depositor",
          "type": "address"
        }
      ],
      "name": "balanceOfPooled",
      "outputs": [
        {
          "internalType": "uint256",
          "name": "payout_",
          "type": "uint256"
        }
      ],
      "stateMutability": "view",
      "type": "function"
    },
    {
      "inputs": [
        {
          "internalType": "address",
          "name": "",
          "type": "address"
        }
      ],
      "name": "bondInfo",
      "outputs": [
        {
          "internalType": "uint256",
          "name": "payout",
          "type": "uint256"
        },
        {
          "internalType": "uint256",
          "name": "lpTokenAmount",
          "type": "uint256"
        },
        {
          "internalType": "uint256",
          "name": "withdrawLpTokenAmount",
          "type": "uint256"
        },
        {
          "internalType": "uint256",
          "name": "vesting",
          "type": "uint256"
        },
        {
          "internalType": "uint256",
          "name": "lastBlock",
          "type": "uint256"
        },
        {
          "internalType": "uint256",
          "name": "pricePaid",
          "type": "uint256"
        }
      ],
      "stateMutability": "view",
      "type": "function"
    },
    {
      "inputs": [],
      "name": "bondPriceInUSD",
      "outputs": [
        {
          "internalType": "uint256",
          "name": "price_",
          "type": "uint256"
        }
      ],
      "stateMutability": "view",
      "type": "function"
    },
    {
      "inputs": [],
      "name": "bookValueInFhm",
      "outputs": [
        {
          "internalType": "uint256",
          "name": "",
          "type": "uint256"
        }
      ],
      "stateMutability": "view",
      "type": "function"
    },
    {
      "inputs": [],
      "name": "boostFactor",
      "outputs": [
        {
          "internalType": "uint256",
          "name": "",
          "type": "uint256"
        }
      ],
      "stateMutability": "view",
      "type": "function"
    },
    {
      "inputs": [
        {
          "internalType": "uint256",
          "name": "payout",
          "type": "uint256"
        }
      ],
      "name": "circuitBreakerActivated",
      "outputs": [
        {
          "internalType": "bool",
          "name": "",
          "type": "bool"
        }
      ],
      "stateMutability": "view",
      "type": "function"
    },
    {
      "inputs": [],
      "name": "circuitBreakerCurrentPayout",
      "outputs": [
        {
          "internalType": "uint256",
          "name": "_amount",
          "type": "uint256"
        }
      ],
      "stateMutability": "view",
      "type": "function"
    },
    {
      "inputs": [],
      "name": "currentDebt",
      "outputs": [
        {
          "internalType": "uint256",
          "name": "",
          "type": "uint256"
        }
      ],
      "stateMutability": "view",
      "type": "function"
    },
    {
      "inputs": [],
      "name": "debtDecay",
      "outputs": [
        {
          "internalType": "uint256",
          "name": "decay_",
          "type": "uint256"
        }
      ],
      "stateMutability": "view",
      "type": "function"
    },
    {
      "inputs": [],
      "name": "debtRatio",
      "outputs": [
        {
          "internalType": "uint256",
          "name": "debtRatio_",
          "type": "uint256"
        }
      ],
      "stateMutability": "view",
      "type": "function"
    },
    {
      "inputs": [],
      "name": "decimals",
      "outputs": [
        {
          "internalType": "uint256",
          "name": "",
          "type": "uint256"
        }
      ],
      "stateMutability": "view",
      "type": "function"
    },
    {
      "inputs": [
        {
          "internalType": "uint256",
          "name": "_amount",
          "type": "uint256"
        },
        {
          "internalType": "uint256",
          "name": "_maxPrice",
          "type": "uint256"
        },
        {
          "internalType": "address",
          "name": "_depositor",
          "type": "address"
        }
      ],
      "name": "deposit",
      "outputs": [
        {
          "internalType": "uint256",
          "name": "",
          "type": "uint256"
        }
      ],
      "stateMutability": "nonpayable",
      "type": "function"
    },
    {
      "inputs": [],
      "name": "doDiv",
      "outputs": [
        {
          "internalType": "bool",
          "name": "",
          "type": "bool"
        }
      ],
      "stateMutability": "view",
      "type": "function"
    },
    {
      "inputs": [
        {
          "internalType": "uint256",
          "name": "_principleAmount",
          "type": "uint256"
        }
      ],
      "name": "feeInXfhm",
      "outputs": [
        {
          "internalType": "uint256",
          "name": "",
          "type": "uint256"
        }
      ],
      "stateMutability": "view",
      "type": "function"
    },
    {
      "inputs": [],
      "name": "getMarketPrice",
      "outputs": [
        {
          "internalType": "uint256",
          "name": "",
          "type": "uint256"
        }
      ],
      "stateMutability": "view",
      "type": "function"
    },
    {
      "inputs": [
        {
          "internalType": "uint256",
          "name": "_vestingTerm",
          "type": "uint256"
        },
        {
          "internalType": "uint256",
          "name": "_discount",
          "type": "uint256"
        },
        {
          "internalType": "uint256",
          "name": "_maxPayout",
          "type": "uint256"
        },
        {
          "internalType": "uint256",
          "name": "_fee",
          "type": "uint256"
        },
        {
          "internalType": "uint256",
          "name": "_maxDebt",
          "type": "uint256"
        },
        {
          "internalType": "uint256",
          "name": "_initialDebt",
          "type": "uint256"
        },
        {
          "internalType": "uint256",
          "name": "_soldBondsLimitUsd",
          "type": "uint256"
        },
        {
          "internalType": "bool",
          "name": "_useCircuitBreaker",
          "type": "bool"
        }
      ],
      "name": "initializeBondTerms",
      "outputs": [],
      "stateMutability": "nonpayable",
      "type": "function"
    },
    {
      "inputs": [],
      "name": "lastDecay",
      "outputs": [
        {
          "internalType": "uint256",
          "name": "",
          "type": "uint256"
        }
      ],
      "stateMutability": "view",
      "type": "function"
    },
    {
      "inputs": [],
      "name": "lpToken",
      "outputs": [
        {
          "internalType": "address",
          "name": "",
          "type": "address"
        }
      ],
      "stateMutability": "view",
      "type": "function"
    },
    {
      "inputs": [],
      "name": "maxPayout",
      "outputs": [
        {
          "internalType": "uint256",
          "name": "",
          "type": "uint256"
        }
      ],
      "stateMutability": "view",
      "type": "function"
    },
    {
      "inputs": [
        {
          "internalType": "uint256",
          "name": "_xfhmAmount",
          "type": "uint256"
        }
      ],
      "name": "maxPrincipleAmount",
      "outputs": [
        {
          "internalType": "uint256",
          "name": "",
          "type": "uint256"
        }
      ],
      "stateMutability": "view",
      "type": "function"
    },
    {
      "inputs": [
        {
          "internalType": "address",
          "name": "user",
          "type": "address"
        },
        {
          "internalType": "bool",
          "name": "add",
          "type": "bool"
        }
      ],
      "name": "modifyWhitelist",
      "outputs": [],
      "stateMutability": "nonpayable",
      "type": "function"
    },
    {
      "inputs": [
        {
          "internalType": "uint256",
          "name": "_value",
          "type": "uint256"
        }
      ],
      "name": "payoutFor",
      "outputs": [
        {
          "internalType": "uint256",
          "name": "",
          "type": "uint256"
        }
      ],
      "stateMutability": "view",
      "type": "function"
    },
    {
      "inputs": [
        {
          "internalType": "uint256",
          "name": "_usdbValue",
          "type": "uint256"
        }
      ],
      "name": "payoutInFhmFor",
      "outputs": [
        {
          "internalType": "uint256",
          "name": "",
          "type": "uint256"
        }
      ],
      "stateMutability": "view",
      "type": "function"
    },
    {
      "inputs": [
        {
          "internalType": "address",
          "name": "_depositor",
          "type": "address"
        }
      ],
      "name": "pendingPayoutFor",
      "outputs": [
        {
          "internalType": "uint256",
          "name": "pendingPayout_",
          "type": "uint256"
        }
      ],
      "stateMutability": "view",
      "type": "function"
    },
    {
      "inputs": [
        {
          "internalType": "address",
          "name": "_depositor",
          "type": "address"
        }
      ],
      "name": "percentVestedFor",
      "outputs": [
        {
          "internalType": "uint256",
          "name": "percentVested_",
          "type": "uint256"
        }
      ],
      "stateMutability": "view",
      "type": "function"
    },
    {
      "inputs": [],
      "name": "policy",
      "outputs": [
        {
          "internalType": "address",
          "name": "",
          "type": "address"
        }
      ],
      "stateMutability": "view",
      "type": "function"
    },
    {
      "inputs": [],
      "name": "poolRouter",
      "outputs": [
        {
          "internalType": "address",
          "name": "",
          "type": "address"
        }
      ],
      "stateMutability": "view",
      "type": "function"
    },
    {
      "inputs": [],
      "name": "principle",
      "outputs": [
        {
          "internalType": "address",
          "name": "",
          "type": "address"
        }
      ],
      "stateMutability": "view",
      "type": "function"
    },
    {
      "inputs": [],
      "name": "pullManagement",
      "outputs": [],
      "stateMutability": "nonpayable",
      "type": "function"
    },
    {
      "inputs": [
        {
          "internalType": "address",
          "name": "newOwner_",
          "type": "address"
        }
      ],
      "name": "pushManagement",
      "outputs": [],
      "stateMutability": "nonpayable",
      "type": "function"
    },
    {
      "inputs": [
        {
          "internalType": "address",
          "name": "_token",
          "type": "address"
        }
      ],
      "name": "recoverLostToken",
      "outputs": [
        {
          "internalType": "bool",
          "name": "",
          "type": "bool"
        }
      ],
      "stateMutability": "nonpayable",
      "type": "function"
    },
    {
      "inputs": [
        {
          "internalType": "address",
          "name": "_recipient",
          "type": "address"
        },
        {
          "internalType": "uint256",
          "name": "_amount",
          "type": "uint256"
        },
        {
          "internalType": "uint256",
          "name": "_amountMin",
          "type": "uint256"
        }
      ],
      "name": "redeem",
      "outputs": [
        {
          "internalType": "uint256",
          "name": "",
          "type": "uint256"
        }
      ],
      "stateMutability": "nonpayable",
      "type": "function"
    },
    {
      "inputs": [],
      "name": "renounceManagement",
      "outputs": [],
      "stateMutability": "nonpayable",
      "type": "function"
    },
    {
      "inputs": [
        {
          "internalType": "enum FantohmProBondDepository.PARAMETER",
          "name": "_parameter",
          "type": "uint8"
        },
        {
          "internalType": "uint256",
          "name": "_input",
          "type": "uint256"
        }
      ],
      "name": "setBondTerms",
      "outputs": [],
      "stateMutability": "nonpayable",
      "type": "function"
    },
    {
      "inputs": [
        {
          "internalType": "uint256",
          "name": "_boostFactor",
          "type": "uint256"
        }
      ],
      "name": "setBoostFactor",
      "outputs": [],
      "stateMutability": "nonpayable",
      "type": "function"
    },
    {
      "inputs": [
        {
          "internalType": "address",
          "name": "_lpToken",
          "type": "address"
        },
        {
          "internalType": "uint256",
          "name": "_decimals",
          "type": "uint256"
        },
        {
          "internalType": "bool",
          "name": "_doDiv",
          "type": "bool"
        }
      ],
      "name": "setPrincipleLpAddress",
      "outputs": [],
      "stateMutability": "nonpayable",
      "type": "function"
    },
    {
      "inputs": [
        {
          "internalType": "uint256",
          "name": "",
          "type": "uint256"
        }
      ],
      "name": "soldBondsInHour",
      "outputs": [
        {
          "internalType": "uint256",
          "name": "timestampFrom",
          "type": "uint256"
        },
        {
          "internalType": "uint256",
          "name": "timestampTo",
          "type": "uint256"
        },
        {
          "internalType": "uint256",
          "name": "payoutInUsd",
          "type": "uint256"
        }
      ],
      "stateMutability": "view",
      "type": "function"
    },
    {
      "inputs": [],
      "name": "standardizedDebtRatio",
      "outputs": [
        {
          "internalType": "uint256",
          "name": "",
          "type": "uint256"
        }
      ],
      "stateMutability": "view",
      "type": "function"
    },
    {
      "inputs": [],
      "name": "terms",
      "outputs": [
        {
          "internalType": "uint256",
          "name": "vestingTerm",
          "type": "uint256"
        },
        {
          "internalType": "uint256",
          "name": "discount",
          "type": "uint256"
        },
        {
          "internalType": "uint256",
          "name": "maxPayout",
          "type": "uint256"
        },
        {
          "internalType": "uint256",
          "name": "fee",
          "type": "uint256"
        },
        {
          "internalType": "uint256",
          "name": "maxDebt",
          "type": "uint256"
        },
        {
          "internalType": "uint256",
          "name": "soldBondsLimitUsd",
          "type": "uint256"
        }
      ],
      "stateMutability": "view",
      "type": "function"
    },
    {
      "inputs": [],
      "name": "totalDebt",
      "outputs": [
        {
          "internalType": "uint256",
          "name": "",
          "type": "uint256"
        }
      ],
      "stateMutability": "view",
      "type": "function"
    },
    {
      "inputs": [],
      "name": "treasury",
      "outputs": [
        {
          "internalType": "address",
          "name": "",
          "type": "address"
        }
      ],
      "stateMutability": "view",
      "type": "function"
    },
    {
      "inputs": [],
      "name": "treasuryHelper",
      "outputs": [
        {
          "internalType": "address",
          "name": "",
          "type": "address"
        }
      ],
      "stateMutability": "view",
      "type": "function"
    },
    {
      "inputs": [],
      "name": "usdbMinter",
      "outputs": [
        {
          "internalType": "address",
          "name": "",
          "type": "address"
        }
      ],
      "stateMutability": "view",
      "type": "function"
    },
    {
      "inputs": [],
      "name": "useCircuitBreaker",
      "outputs": [
        {
          "internalType": "bool",
          "name": "",
          "type": "bool"
        }
      ],
      "stateMutability": "view",
      "type": "function"
    },
    {
      "inputs": [],
      "name": "vault",
      "outputs": [
        {
          "internalType": "address",
          "name": "",
          "type": "address"
        }
      ],
      "stateMutability": "view",
      "type": "function"
    },
    {
      "inputs": [
        {
          "internalType": "address",
          "name": "",
          "type": "address"
        }
      ],
      "name": "whitelist",
      "outputs": [
        {
          "internalType": "bool",
          "name": "",
          "type": "bool"
        }
      ],
      "stateMutability": "view",
      "type": "function"
    }
  ],
  "bytecode": "0x6101c06040523480156200001257600080fd5b50604051620040c4380380620040c483398101604081905262000035916200041e565b600080546001600160a01b03191633178082556040516001600160a01b039190911691907fea8258f2d9ddb679928cf34b78cf645b7feda9acc828e4dd82d014eaae270eba908290a360016002556001600160a01b038b166200009757600080fd5b6001600160601b031960608c901b166080526001600160a01b038a16620000bd57600080fd5b6001600160601b031960608b901b1660a0526001600160a01b038916620000e357600080fd5b6001600160601b031960608a901b1660c0526001600160a01b0388166200010957600080fd5b6001600160601b0319606089901b1660e0526001600160a01b0387166200012f57600080fd5b6001600160601b0319606088901b16610100526001600160a01b0386166200015657600080fd5b6001600160601b0319606087901b16610120526001600160a01b0385166200017d57600080fd5b6001600160601b0319606086901b16610180526001600160a01b038416620001a457600080fd5b600380546001600160a01b0319166001600160a01b038681169190911790915560126004558316620001d557600080fd5b6001600160601b0319606084901b16610140526001600160a01b038216620001fc57600080fd5b6001600160601b0319606083901b166101a0526001600160a01b0381166200022357600080fd5b6001600160601b0319606082901b16610160526064600e553360009081526010602052604090819020805460ff191660011790555163095ea7b360e01b81526001600160a01b0385169063095ea7b390620002879088906000199060040162000529565b602060405180830381600087803b158015620002a257600080fd5b505af1158015620002b7573d6000803e3d6000fd5b505050506040513d601f19601f82011682018060405250810190620002dd919062000500565b5060405163095ea7b360e01b81526001600160a01b038a169063095ea7b390620003109088906000199060040162000529565b602060405180830381600087803b1580156200032b57600080fd5b505af115801562000340573d6000803e3d6000fd5b505050506040513d601f19601f8201168201806040525081019062000366919062000500565b5060405163095ea7b360e01b81526001600160a01b038b169063095ea7b390620003999088906000199060040162000529565b602060405180830381600087803b158015620003b457600080fd5b505af1158015620003c9573d6000803e3d6000fd5b505050506040513d601f19601f82011682018060405250810190620003ef919062000500565b50505050505050505050505062000542565b80516001600160a01b03811681146200041957600080fd5b919050565b60008060008060008060008060008060006101608c8e03121562000440578687fd5b6200044b8c62000401565b9a506200045b60208d0162000401565b99506200046b60408d0162000401565b98506200047b60608d0162000401565b97506200048b60808d0162000401565b96506200049b60a08d0162000401565b9550620004ab60c08d0162000401565b9450620004bb60e08d0162000401565b9350620004cc6101008d0162000401565b9250620004dd6101208d0162000401565b9150620004ee6101408d0162000401565b90509295989b509295989b9093969950565b60006020828403121562000512578081fd5b8151801515811462000522578182fd5b9392505050565b6001600160a01b03929092168252602082015260400190565b60805160601c60a05160601c60c05160601c60e05160601c6101005160601c6101205160601c6101405160601c6101605160601c6101805160601c6101a05160601c613a6b62000659600039806114fd52806121c35250806110ee528061253b52806127ff525080610c4752806119a3528061242b52508061093152806118e852508061100f52806111c6525080611a555280611c205280611ff952508061127652806117505250806105fc5280610e38528061134a528061171e5280611d555280611fb7528061258b528061284e525080610dbc5280610f0052806117fd5280611f7852806120ed52806121f9528061256a528061282c525080610ed6528061187d5280611a335280611f395250613a6b6000f3fe608060405234801561001057600080fd5b50600436106103365760003560e01c8063759076e5116101b2578063b4abccba116100f9578063e0176de8116100a2578063f0c394bc1161007c578063f0c394bc146105da578063f5c2ab5b146105e2578063fbfa77cf146105ea578063fc7b9c18146105f257610336565b8063e0176de8146105b7578063e392a262146105bf578063eed0e12b146105c757610336565b8063cea55f57116100d3578063cea55f571461059f578063d5025625146105a7578063de317e6f146105af57610336565b8063b4abccba1461055f578063c1ddfb0014610572578063cd1234b31461057a57610336565b8063904b3ece1161015b5780639b19251a116101355780639b19251a14610531578063a7ee76cf14610544578063b09121a61461055757610336565b8063904b3ece1461050e57806398fabd3a146105165780639a0374691461051e57610336565b8063864cf9df1161018c578063864cf9df146104e057806389a5834f146104f35780638dbdbe6d146104fb57610336565b8063759076e5146104bd5780637927ebf8146104c5578063844b5c7c146104d857610336565b8063313ce56711610281578063512a3b981161022a5780635e9db638116102045780635e9db638146104925780635fcbd285146104a557806361d027b3146104ad578063660e16c3146104b557610336565b8063512a3b981461047a5780635452b9ba146104825780635a96ac0a1461048a57610336565b806346f68ee91161025b57806346f68ee91461044c57806348547dfa1461045f578063507930ec1461046757610336565b8063313ce5671461041a57806331a0edec146104225780633729c4dc1461042a57610336565b8063089208d8116102e357806321da34ae116102bd57806321da34ae146103ec5780632b83cccd146103ff57806330c90e631461041257610336565b8063089208d8146103c95780630d81d8fa146103d15780631e321a0f146103d957610336565b80630505c8c9116103145780630505c8c914610399578063060d206e146103a157806306d25b31146103b657610336565b8063016a42841461033b5780630186e3941461035957806301b88ee814610379575b600080fd5b6103436105fa565b6040516103509190613180565b60405180910390f35b61036c61036736600461304e565b61061e565b604051610350919061325a565b61038c610387366004612edc565b610655565b6040516103509190613991565b610343610714565b6103b46103af366004612f14565b610724565b005b6103b46103c43660046130fb565b61081b565b6103b46108ae565b61034361092f565b6103b46103e7366004612fdd565b610953565b61038c6103fa36600461304e565b610a57565b61038c61040d366004612f8d565b610a90565b610343610ed4565b61038c610ef8565b610343610efe565b61043d61043836600461304e565b610f22565b604051610350939291906139a8565b6103b461045a366004612edc565b610f55565b61034361100d565b61038c610475366004612edc565b611031565b61036c6110dc565b6103436110ec565b6103b4611110565b61038c6104a036600461304e565b6111a8565b610343611265565b610343611274565b61038c611298565b61038c611494565b61038c6104d336600461304e565b6114af565b61038c6114c0565b6103b46104ee36600461304e565b6114ca565b61038c6114f9565b61038c6105093660046130a1565b61158c565b61038c611c14565b610343611c1e565b61038c61052c36600461304e565b611c42565b61036c61053f366004612edc565b611c67565b61038c610552366004612edc565b611c7c565b61036c611f2c565b61036c61056d366004612edc565b611f35565b61038c6120ad565b61058d610588366004612edc565b6120b3565b604051610350969594939291906139be565b61038c6120e8565b61058d6121ac565b6103436121c1565b61038c6121e5565b61038c612288565b6103b46105d5366004612f4c565b6122cd565b61038c61235c565b61038c612423565b610343612429565b61038c61244d565b7f000000000000000000000000000000000000000000000000000000000000000081565b600f5460009060ff1661063357506000610650565b61064561063e61235c565b8390612453565b600a54909250821190505b919050565b60008061066183611031565b9050612710811061070957610674612e55565b506001600160a01b0383166000908152600b6020908152604091829020825160c08101845281548152600182015492810192909252600281015492820183905260038101546060830152600481015460808301526005015460a082015290610701906103e8906106fb9061029b906106f5906106ef8a611c7c565b90612453565b90612478565b906124b2565b92505061070e565b600091505b50919050565b6000546001600160a01b03165b90565b6000546001600160a01b031633146107575760405162461bcd60e51b815260040161074e906136c4565b60405180910390fd5b80156107be576001600160a01b03821660009081526010602052604090205460ff16156107965760405162461bcd60e51b815260040161074e90613858565b6001600160a01b0382166000908152601060205260409020805460ff19166001179055610817565b6001600160a01b03821660009081526010602052604090205460ff166107f65760405162461bcd60e51b815260040161074e906138ec565b6001600160a01b0382166000908152601060205260409020805460ff191690555b5050565b6000546001600160a01b031633146108455760405162461bcd60e51b815260040161074e906136c4565b6040805160c08101825289815260208101899052908101879052606081018690526080810185905260a001829052600597909755600695909555600793909355600891909155600955600a91909155600c5543600d55600f805460ff1916911515919091179055565b6000546001600160a01b031633146108d85760405162461bcd60e51b815260040161074e906136c4565b600080546040516001600160a01b03909116907fea8258f2d9ddb679928cf34b78cf645b7feda9acc828e4dd82d014eaae270eba908390a36000805473ffffffffffffffffffffffffffffffffffffffff19169055565b7f000000000000000000000000000000000000000000000000000000000000000081565b6000546001600160a01b0316331461097d5760405162461bcd60e51b815260040161074e906136c4565b600082600381111561098b57fe5b14156109bd576127108110156109b35760405162461bcd60e51b815260040161074e90613565565b6005819055610817565b60018260038111156109cb57fe5b14156109fd576103e88111156109f35760405162461bcd60e51b815260040161074e90613408565b6007819055610817565b6002826003811115610a0b57fe5b1415610a3d57612710811115610a335760405162461bcd60e51b815260040161074e90613298565b6008819055610817565b6003826003811115610a4b57fe5b14156108175760095550565b60006021610a89610a666114f9565b6106f560646106fb600e546106f5896106f5600a8a6124b290919063ffffffff16565b9392505050565b6000600280541415610ab45760405162461bcd60e51b815260040161074e90613923565b60028055610ac0612e55565b506001600160a01b0384166000908152600b6020908152604091829020825160c08101845281548152600182015492810183905260028201549381019390935260038101546060840152600481015460808401526005015460a0830152841015610b3c5760405162461bcd60e51b815260040161074e906134d1565b6000610b4786611031565b3360009081526010602052604090205490915060ff16610b795760405162461bcd60e51b815260040161074e9061395a565b612710811015610b9b5760405162461bcd60e51b815260040161074e90613374565b6020820151610baa90866124f4565b60208301526040820151610bbe9086612453565b604083018190526020830151610be3916103e8916106fb9161029b916106f591612453565b82604001511115610c065760405162461bcd60e51b815260040161074e90613306565b6003546040517f23b872dd0000000000000000000000000000000000000000000000000000000081526001600160a01b03909116906323b872dd90610c73907f00000000000000000000000000000000000000000000000000000000000000009030908a90600401613194565b602060405180830381600087803b158015610c8d57600080fd5b505af1158015610ca1573d6000803e3d6000fd5b505050506040513d601f19601f82011682018060405250810190610cc59190612fc1565b50600080610cd287612536565b9150915085811015610cf65760405162461bcd60e51b815260040161074e906137fb565b8351811015610d12578351610d0b90826124f4565b8452610d17565b600084525b6020840151610d5c576001600160a01b0388166000908152600b6020526040812081815560018101829055600281018290556003810182905560048101829055600501555b876001600160a01b03167f1ed7ee1a43efec4a4f81e0d29338046bc1b1f4f035f86d69176f2d3518baae8b82898760000151604051610d9d939291906139a8565b60405180910390a2604051630852cd8d60e31b81526001600160a01b037f000000000000000000000000000000000000000000000000000000000000000016906342966c6890610df1908590600401613991565b600060405180830381600087803b158015610e0b57600080fd5b505af1158015610e1f573d6000803e3d6000fd5b505060405163a9059cbb60e01b81526001600160a01b037f000000000000000000000000000000000000000000000000000000000000000016925063a9059cbb9150610e71908b908590600401613241565b602060405180830381600087803b158015610e8b57600080fd5b505af1158015610e9f573d6000803e3d6000fd5b505050506040513d601f19601f82011682018060405250810190610ec39190612fc1565b506001600255979650505050505050565b7f000000000000000000000000000000000000000000000000000000000000000081565b60045481565b7f000000000000000000000000000000000000000000000000000000000000000081565b60118181548110610f3257600080fd5b600091825260209091206003909102018054600182015460029092015490925083565b6000546001600160a01b03163314610f7f5760405162461bcd60e51b815260040161074e906136c4565b6001600160a01b038116610fa55760405162461bcd60e51b815260040161074e906133ab565b600080546040516001600160a01b03808516939216917fea8258f2d9ddb679928cf34b78cf645b7feda9acc828e4dd82d014eaae270eba91a36001805473ffffffffffffffffffffffffffffffffffffffff19166001600160a01b0392909216919091179055565b7f000000000000000000000000000000000000000000000000000000000000000081565b600061103b612e55565b506001600160a01b0382166000908152600b60209081526040808320815160c081018352815481526001820154938101939093526002810154918301919091526003810154606083015260048101546080830181905260059091015460a08301529091906110aa9043906124f4565b606083015190915080156110cf576110c8816106fb84612710612478565b93506110d4565b600093505b505050919050565b600354600160a01b900460ff1681565b7f000000000000000000000000000000000000000000000000000000000000000081565b6001546001600160a01b0316331461113a5760405162461bcd60e51b815260040161074e90613474565b600154600080546040516001600160a01b0393841693909116917faa151555690c956fc3ea32f106bb9f119b5237a061eaa8557cff3e51e3792c8d91a36001546000805473ffffffffffffffffffffffffffffffffffffffff19166001600160a01b03909216919091179055565b600061125f633b9aca006106fb662386f26fc100006106fb61125a877f00000000000000000000000000000000000000000000000000000000000000006001600160a01b031663660e16c36040518163ffffffff1660e01b815260040160206040518083038186803b15801561121d57600080fd5b505afa158015611231573d6000803e3d6000fd5b505050506040513d601f19601f820116820180604052508101906112559190613066565b612631565b61272a565b92915050565b6003546001600160a01b031681565b7f000000000000000000000000000000000000000000000000000000000000000081565b6000806000600360009054906101000a90046001600160a01b03166001600160a01b0316630902f1ac6040518163ffffffff1660e01b815260040160606040518083038186803b1580156112eb57600080fd5b505afa1580156112ff573d6000803e3d6000fd5b505050506040513d601f19601f82011682018060405250810190611323919061300b565b506dffffffffffffffffffffffffffff1691506dffffffffffffffffffffffffffff1691507f00000000000000000000000000000000000000000000000000000000000000006001600160a01b0316600360009054906101000a90046001600160a01b03166001600160a01b0316630dfe16816040518163ffffffff1660e01b815260040160206040518083038186803b1580156113c057600080fd5b505afa1580156113d4573d6000803e3d6000fd5b505050506040513d601f19601f820116820180604052508101906113f89190612ef8565b6001600160a01b0316141561145257600354600160a01b900460ff16156114365760045461142d90600a0a6106fb83856124b2565b92505050610721565b61142d826106fb600454600a0a8461247890919063ffffffff16565b600354600160a01b900460ff16156114785760045461142d90600a0a6106fb84846124b2565b61142d816106fb600454600a0a8561247890919063ffffffff16565b60006114aa6114a1612288565b600c54906124f4565b905090565b600061125f61125a83611255611298565b60006114aa611298565b6000546001600160a01b031633146114f45760405162461bcd60e51b815260040161074e906136c4565b600e55565b60007f00000000000000000000000000000000000000000000000000000000000000006001600160a01b0316630bdade416040518163ffffffff1660e01b815260040160206040518083038186803b15801561155457600080fd5b505afa158015611568573d6000803e3d6000fd5b505050506040513d601f19601f820116820180604052508101906114aa9190613066565b60006002805414156115b05760405162461bcd60e51b815260040161074e90613923565b600280556001600160a01b0382166115da5760405162461bcd60e51b815260040161074e9061333d565b3360009081526010602052604090205460ff166116095760405162461bcd60e51b815260040161074e9061395a565b611611612742565b600954600c5411156116355760405162461bcd60e51b815260040161074e906135c2565b600061163f6114c0565b9050808410156116615760405162461bcd60e51b815260040161074e906136f9565b600061166c866114af565b9050662386f26fc100008110156116955760405162461bcd60e51b815260040161074e90613630565b61169d6121e5565b8111156116bc5760405162461bcd60e51b815260040161074e9061378d565b6116c58161061e565b156116e25760405162461bcd60e51b815260040161074e906132cf565b60006116ed826111a8565b9050600061170f6127106106fb6005600301548561247890919063ffffffff16565b90506117466001600160a01b037f00000000000000000000000000000000000000000000000000000000000000001633308b612756565b6001600160a01b037f000000000000000000000000000000000000000000000000000000000000000016636a20de92306117808585612453565b6040518363ffffffff1660e01b815260040161179d929190613241565b600060405180830381600087803b1580156117b757600080fd5b505af11580156117cb573d6000803e3d6000fd5b50506040517f40c10f190000000000000000000000000000000000000000000000000000000081526001600160a01b037f00000000000000000000000000000000000000000000000000000000000000001692506340c10f1991506118369030908790600401613241565b600060405180830381600087803b15801561185057600080fd5b505af1158015611864573d6000803e3d6000fd5b5050604051630852cd8d60e31b81526001600160a01b037f00000000000000000000000000000000000000000000000000000000000000001692506342966c6891506118b4908590600401613991565b600060405180830381600087803b1580156118ce57600080fd5b505af11580156118e2573d6000803e3d6000fd5b505050507f00000000000000000000000000000000000000000000000000000000000000006001600160a01b03166379cc67908761191f8b611c42565b6040518363ffffffff1660e01b815260040161193c929190613241565b600060405180830381600087803b15801561195657600080fd5b505af115801561196a573d6000803e3d6000fd5b50505050600061197a89856127cc565b60035460405163a9059cbb60e01b81529192506001600160a01b03169063a9059cbb906119cd907f0000000000000000000000000000000000000000000000000000000000000000908590600401613241565b602060405180830381600087803b1580156119e757600080fd5b505af11580156119fb573d6000803e3d6000fd5b505050506040513d601f19601f82011682018060405250810190611a1f9190612fc1565b508115611a7a57611a7a6001600160a01b037f0000000000000000000000000000000000000000000000000000000000000000167f0000000000000000000000000000000000000000000000000000000000000000846128e2565b600c54611a87908a612453565b600c55600f5460ff1615611a9e57611a9e84612906565b6040805160c0810182526001600160a01b0389166000908152600b60205291909120548190611acd908c612453565b81526001600160a01b0389166000908152600b6020908152604090912060010154910190611afb9084612453565b8152602001600b60008a6001600160a01b03166001600160a01b03168152602001908152602001600020600201548152602001600560000154815260200143815260200186815250600b6000896001600160a01b03166001600160a01b03168152602001908152602001600020600082015181600001556020820151816001015560408201518160020155606082015181600301556080820151816004015560a0820151816005015590505084611bc06005600001544361245390919063ffffffff16565b886001600160a01b03167fd52c75b244055af9364c0a5dc0da7868f6ae104012f245ad2702031af04d9b8e8c85604051611bfb92919061399a565b60405180910390a4505060016002555095945050505050565b60006114aa6120e8565b7f000000000000000000000000000000000000000000000000000000000000000081565b600061125f611c4f6114f9565b600e546106fb908160646106f56021838a600a612478565b60106020526000908152604090205460ff1681565b6001600160a01b038082166000908152600b60205260408082206001015460035482517f0902f1ac000000000000000000000000000000000000000000000000000000008152925193949193859384939290921691630902f1ac916004808301926060929190829003018186803b158015611cf657600080fd5b505afa158015611d0a573d6000803e3d6000fd5b505050506040513d601f19601f82011682018060405250810190611d2e919061300b565b506dffffffffffffffffffffffffffff1691506dffffffffffffffffffffffffffff1691507f00000000000000000000000000000000000000000000000000000000000000006001600160a01b0316600360009054906101000a90046001600160a01b03166001600160a01b0316630dfe16816040518163ffffffff1660e01b815260040160206040518083038186803b158015611dcb57600080fd5b505afa158015611ddf573d6000803e3d6000fd5b505050506040513d601f19601f82011682018060405250810190611e039190612ef8565b6001600160a01b03161415611ea457600354604080516318160ddd60e01b81529051611e9a926001600160a01b0316916318160ddd916004808301926020929190829003018186803b158015611e5857600080fd5b505afa158015611e6c573d6000803e3d6000fd5b505050506040513d601f19601f82011682018060405250810190611e909190613066565b6106fb8486612478565b9350505050610650565b600354604080516318160ddd60e01b81529051611e9a926001600160a01b0316916318160ddd916004808301926020929190829003018186803b158015611eea57600080fd5b505afa158015611efe573d6000803e3d6000fd5b505050506040513d601f19601f82011682018060405250810190611f229190613066565b6106fb8386612478565b600f5460ff1681565b60007f00000000000000000000000000000000000000000000000000000000000000006001600160a01b0316826001600160a01b03161415611f7657600080fd5b7f00000000000000000000000000000000000000000000000000000000000000006001600160a01b0316826001600160a01b03161415611fb557600080fd5b7f00000000000000000000000000000000000000000000000000000000000000006001600160a01b0316826001600160a01b03161415611ff457600080fd5b6120a57f0000000000000000000000000000000000000000000000000000000000000000836001600160a01b03166370a08231306040518263ffffffff1660e01b81526004016120449190613180565b60206040518083038186803b15801561205c57600080fd5b505afa158015612070573d6000803e3d6000fd5b505050506040513d601f19601f820116820180604052508101906120949190613066565b6001600160a01b03851691906128e2565b506001919050565b600e5481565b600b60205260009081526040902080546001820154600283015460038401546004850154600590950154939492939192909186565b6000807f00000000000000000000000000000000000000000000000000000000000000006001600160a01b03166318160ddd6040518163ffffffff1660e01b815260040160206040518083038186803b15801561214457600080fd5b505afa158015612158573d6000803e3d6000fd5b505050506040513d601f19601f8201168201806040525081019061217c9190613066565b90506121a6670de0b6b3a76400006106fb61125a6121a0633b9aca006106f5611494565b85612631565b91505090565b600554600654600754600854600954600a5486565b7f000000000000000000000000000000000000000000000000000000000000000081565b60006114aa620186a06106fb6005600201547f00000000000000000000000000000000000000000000000000000000000000006001600160a01b03166318160ddd6040518163ffffffff1660e01b815260040160206040518083038186803b15801561225057600080fd5b505afa158015612264573d6000803e3d6000fd5b505050506040513d601f19601f820116820180604052508101906106f59190613066565b6000806122a0600d54436124f490919063ffffffff16565b600554600c549192506122b7916106fb9084612478565b9150600c548211156122c957600c5491505b5090565b6000546001600160a01b031633146122f75760405162461bcd60e51b815260040161074e906136c4565b60038054600493909355901515600160a01b027fffffffffffffffffffffff00ffffffffffffffffffffffffffffffffffffffff6001600160a01b0390941673ffffffffffffffffffffffffffffffffffffffff199093169290921792909216179055565b60115460009061236e57506000610721565b6011546000906018116123845750601154601719015b426201517f198101825b60115481101561241c576123a0612e8b565b601182815481106123ad57fe5b906000526020600020906003020160405180606001604052908160008201548152602001600182015481526020016002820154815250509050828160000151101580156123fb575080518410155b15612413576040810151612410908790612453565b95505b5060010161238e565b5050505090565b600d5481565b7f000000000000000000000000000000000000000000000000000000000000000081565b600c5481565b600082820183811015610a895760405162461bcd60e51b815260040161074e9061343d565b6000826124875750600061125f565b8282028284828161249457fe5b0414610a895760405162461bcd60e51b815260040161074e90613667565b6000610a8983836040518060400160405280601a81526020017f536166654d6174683a206469766973696f6e206279207a65726f000000000000815250612b7a565b6000610a8983836040518060400160405280601e81526020017f536166654d6174683a207375627472616374696f6e206f766572666c6f770000815250612bb1565b6000807f00000000000000000000000000000000000000000000000000000000000000006001600160a01b031663baa2abde7f00000000000000000000000000000000000000000000000000000000000000007f00000000000000000000000000000000000000000000000000000000000000008660018030600f60fc1b6040518863ffffffff1660e01b81526004016125d697969594939291906131b8565b6040805180830381600087803b1580156125ef57600080fd5b505af1158015612603573d6000803e3d6000fd5b505050506040513d601f19601f82011682018060405250810190612627919061307e565b9094909350915050565b612639612eac565b600082116126595760405162461bcd60e51b815260040161074e90613508565b82612673575060408051602081019091526000815261125f565b71ffffffffffffffffffffffffffffffffffff83116126e557600082607085901b8161269b57fe5b0490506001600160e01b038111156126c55760405162461bcd60e51b815260040161074e90613756565b6040518060200160405280826001600160e01b031681525091505061125f565b6000612701846e01000000000000000000000000000085612bdd565b90506001600160e01b038111156126c55760405162461bcd60e51b815260040161074e90613756565b516612725dd1d243ab6001600160e01b039091160490565b61274d6114a1612288565b600c5543600d55565b6127c6846323b872dd60e01b85858560405160240161277793929190613194565b60408051601f198184030181529190526020810180516001600160e01b03167fffffffff0000000000000000000000000000000000000000000000000000000090931692909217909152612c48565b50505050565b6040517fe8e337000000000000000000000000000000000000000000000000000000000081526000906001600160a01b037f0000000000000000000000000000000000000000000000000000000000000000169063e8e3370090612887907f0000000000000000000000000000000000000000000000000000000000000000907f0000000000000000000000000000000000000000000000000000000000000000908790899060019081903090600f60fc1b906004016131f8565b606060405180830381600087803b1580156128a157600080fd5b505af11580156128b5573d6000803e3d6000fd5b505050506040513d601f19601f820116820180604052508101906128d991906130ce565b95945050505050565b6129018363a9059cbb60e01b8484604051602401612777929190613241565b505050565b601154806129bc57506040805160608101825242808252610e1001602082019081529181018381526011805460018101825560009190915291517f31ecc21a745e3968a04e9570e4425bc18fa8019c68028196b546d1669c200c6860039093029283015591517f31ecc21a745e3968a04e9570e4425bc18fa8019c68028196b546d1669c200c6982015590517f31ecc21a745e3968a04e9570e4425bc18fa8019c68028196b546d1669c200c6a90910155612b77565b6000601160018303815481106129ce57fe5b906000526020600020906003020190504281600001541080156129f5575042816001015410155b15612a13576002810154612a099084612453565b6002820155612901565b6001810154610e1001428110612acb576040805160608101825260018481015482526020820184815292820187815260118054928301815560005291517f31ecc21a745e3968a04e9570e4425bc18fa8019c68028196b546d1669c200c6860039092029182015591517f31ecc21a745e3968a04e9570e4425bc18fa8019c68028196b546d1669c200c69830155517f31ecc21a745e3968a04e9570e4425bc18fa8019c68028196b546d1669c200c6a909101556127c6565b50506040805160608101825242808252610e1001602082019081529181018481526011805460018101825560009190915291517f31ecc21a745e3968a04e9570e4425bc18fa8019c68028196b546d1669c200c6860039093029283015591517f31ecc21a745e3968a04e9570e4425bc18fa8019c68028196b546d1669c200c6982015590517f31ecc21a745e3968a04e9570e4425bc18fa8019c68028196b546d1669c200c6a90910155505b50565b60008183612b9b5760405162461bcd60e51b815260040161074e9190613265565b506000838581612ba757fe5b0495945050505050565b60008184841115612bd55760405162461bcd60e51b815260040161074e9190613265565b505050900390565b6000806000612bec8686612cd7565b9150915060008480612bfa57fe5b868809905082811115612c0e576001820391505b8083039250848210612c325760405162461bcd60e51b815260040161074e906135f9565b612c3d838387612d04565b979650505050505050565b6060612c9d826040518060400160405280602081526020017f5361666545524332303a206c6f772d6c6576656c2063616c6c206661696c6564815250856001600160a01b0316612d749092919063ffffffff16565b8051909150156129015780806020019051810190612cbb9190612fc1565b6129015760405162461bcd60e51b815260040161074e9061388f565b6000808060001984860990508385029250828103915082811015612cfc576001820391505b509250929050565b60008181038216808381612d1457fe5b049250808581612d2057fe5b049450808160000381612d2f57fe5b60028581038087028203028087028203028087028203028087028203028087028203028087028203029586029003909402930460010193909302939093010292915050565b6060612d838484600085612d8b565b949350505050565b6060612d9685612e4f565b612db25760405162461bcd60e51b815260040161074e906137c4565b60006060866001600160a01b03168587604051612dcf9190613164565b60006040518083038185875af1925050503d8060008114612e0c576040519150601f19603f3d011682016040523d82523d6000602084013e612e11565b606091505b50915091508115612e25579150612d839050565b805115612e355780518082602001fd5b8360405162461bcd60e51b815260040161074e9190613265565b3b151590565b6040518060c001604052806000815260200160008152602001600081526020016000815260200160008152602001600081525090565b60405180606001604052806000815260200160008152602001600081525090565b60408051602081019091526000815290565b80516dffffffffffffffffffffffffffff8116811461065057600080fd5b600060208284031215612eed578081fd5b8135610a8981613a12565b600060208284031215612f09578081fd5b8151610a8981613a12565b60008060408385031215612f26578081fd5b8235612f3181613a12565b91506020830135612f4181613a27565b809150509250929050565b600080600060608486031215612f60578081fd5b8335612f6b81613a12565b9250602084013591506040840135612f8281613a27565b809150509250925092565b600080600060608486031215612fa1578283fd5b8335612fac81613a12565b95602085013595506040909401359392505050565b600060208284031215612fd2578081fd5b8151610a8981613a27565b60008060408385031215612fef578182fd5b823560048110612ffd578283fd5b946020939093013593505050565b60008060006060848603121561301f578283fd5b61302884612ebe565b925061303660208501612ebe565b9150604084015163ffffffff81168114612f82578182fd5b60006020828403121561305f578081fd5b5035919050565b600060208284031215613077578081fd5b5051919050565b60008060408385031215613090578182fd5b505080516020909101519092909150565b6000806000606084860312156130b5578283fd5b83359250602084013591506040840135612f8281613a12565b6000806000606084860312156130e2578283fd5b8351925060208401519150604084015190509250925092565b600080600080600080600080610100898b031215613117578586fd5b883597506020890135965060408901359550606089013594506080890135935060a0890135925060c0890135915060e089013561315381613a27565b809150509295985092959890939650565b600082516131768184602087016139e6565b9190910192915050565b6001600160a01b0391909116815260200190565b6001600160a01b039384168152919092166020820152604081019190915260600190565b6001600160a01b039788168152958716602087015260408601949094526060850192909252608084015290921660a082015260c081019190915260e00190565b6001600160a01b039889168152968816602088015260408701959095526060860193909352608085019190915260a084015290921660c082015260e08101919091526101000190565b6001600160a01b03929092168252602082015260400190565b901515815260200190565b60006020825282518060208401526132848160408501602087016139e6565b601f01601f19169190910160400192915050565b6020808252601c908201527f44414f206665652063616e6e6f7420657863656564207061796f757400000000604082015260600190565b60208082526016908201527f434952435549545f425245414b45525f41435449564500000000000000000000604082015260600190565b60208082526018908201527f414c4c5f4c505f414c52454144595f57495448445241574e0000000000000000604082015260600190565b6020808252600f908201527f496e76616c696420616464726573730000000000000000000000000000000000604082015260600190565b60208082526014908201527f5761697420666f7220656e64206f6620626f6e64000000000000000000000000604082015260600190565b60208082526026908201527f4f776e61626c653a206e6577206f776e657220697320746865207a65726f206160408201527f6464726573730000000000000000000000000000000000000000000000000000606082015260800190565b6020808252818101527f5061796f75742063616e6e6f742062652061626f766520312070657263656e74604082015260600190565b6020808252601b908201527f536166654d6174683a206164646974696f6e206f766572666c6f770000000000604082015260600190565b60208082526022908201527f4f776e61626c653a206d757374206265206e6577206f776e657220746f20707560408201527f6c6c000000000000000000000000000000000000000000000000000000000000606082015260800190565b60208082526019908201527f45786365656420746865206465706f73697420616d6f756e7400000000000000604082015260600190565b60208082526026908201527f4669786564506f696e743a3a6672616374696f6e3a206469766973696f6e206260408201527f79207a65726f0000000000000000000000000000000000000000000000000000606082015260800190565b60208082526028908201527f56657374696e67206d757374206265206c6f6e676572207468616e203130303060408201527f3020626c6f636b73000000000000000000000000000000000000000000000000606082015260800190565b60208082526014908201527f4d61782063617061636974792072656163686564000000000000000000000000604082015260600190565b6020808252601a908201527f46756c6c4d6174683a3a6d756c4469763a206f766572666c6f77000000000000604082015260600190565b6020808252600e908201527f426f6e6420746f6f20736d616c6c000000000000000000000000000000000000604082015260600190565b60208082526021908201527f536166654d6174683a206d756c7469706c69636174696f6e206f766572666c6f60408201527f7700000000000000000000000000000000000000000000000000000000000000606082015260800190565b6020808252818101527f4f776e61626c653a2063616c6c6572206973206e6f7420746865206f776e6572604082015260600190565b60208082526023908201527f536c697070616765206c696d69743a206d6f7265207468616e206d617820707260408201527f6963650000000000000000000000000000000000000000000000000000000000606082015260800190565b6020808252601e908201527f4669786564506f696e743a3a6672616374696f6e3a206f766572666c6f770000604082015260600190565b6020808252600e908201527f426f6e6420746f6f206c61726765000000000000000000000000000000000000604082015260600190565b6020808252601d908201527f416464726573733a2063616c6c20746f206e6f6e2d636f6e7472616374000000604082015260600190565b60208082526023908201527f536c697070616765206c696d69743a206d6f7265207468616e20616d6f756e7460408201527f4d696e0000000000000000000000000000000000000000000000000000000000606082015260800190565b60208082526014908201527f414c52454144595f494e5f57484954454c495354000000000000000000000000604082015260600190565b6020808252602a908201527f5361666545524332303a204552433230206f7065726174696f6e20646964206e60408201527f6f74207375636365656400000000000000000000000000000000000000000000606082015260800190565b60208082526010908201527f4e4f545f494e5f57484954454c49535400000000000000000000000000000000604082015260600190565b6020808252601f908201527f5265656e7472616e637947756172643a207265656e7472616e742063616c6c00604082015260600190565b6020808252601a908201527f53454e4445525f49535f4e4f545f494e5f57484954454c495354000000000000604082015260600190565b90815260200190565b918252602082015260400190565b9283526020830191909152604082015260600190565b958652602086019490945260408501929092526060840152608083015260a082015260c00190565b60005b83811015613a015781810151838201526020016139e9565b838111156127c65750506000910152565b6001600160a01b0381168114612b7757600080fd5b8015158114612b7757600080fdfea2646970667358221220a38029d0e1c12dea4894c1936fe8a470c64ff4d6efd77e669fda587a1a64a9c764736f6c63430007050033",
  "linkReferences": {},
  "deployedLinkReferences": {}
}